{
  "contractName": "SimpleStorage",
  "abi": [
    {
      "constant": true,
      "inputs": [
        {
          "name": "",
          "type": "uint256"
        }
      ],
      "name": "students",
      "outputs": [
        {
          "name": "name",
          "type": "string"
        },
        {
          "name": "BlockChainProgress",
          "type": "uint32"
        },
        {
          "name": "EthereumProgress",
          "type": "uint32"
        },
        {
          "name": "BitcoinProgress",
          "type": "uint32"
        },
        {
          "name": "studentTokens",
          "type": "uint32"
        },
        {
          "name": "certificateHash",
          "type": "string"
        }
      ],
      "payable": false,
      "stateMutability": "view",
      "type": "function"
    },
    {
      "constant": true,
      "inputs": [],
      "name": "name",
      "outputs": [
        {
          "name": "",
          "type": "string"
        }
      ],
      "payable": false,
      "stateMutability": "view",
      "type": "function"
    },
    {
      "constant": true,
      "inputs": [],
      "name": "totalSupply",
      "outputs": [
        {
          "name": "",
          "type": "uint256"
        }
      ],
      "payable": false,
      "stateMutability": "view",
      "type": "function"
    },
    {
      "constant": true,
      "inputs": [
        {
          "name": "",
          "type": "uint256"
        }
      ],
      "name": "studentAddress",
      "outputs": [
        {
          "name": "",
          "type": "address"
        }
      ],
      "payable": false,
      "stateMutability": "view",
      "type": "function"
    },
    {
      "constant": true,
      "inputs": [],
      "name": "standard",
      "outputs": [
        {
          "name": "",
          "type": "string"
        }
      ],
      "payable": false,
      "stateMutability": "view",
      "type": "function"
    },
    {
      "constant": true,
      "inputs": [
        {
          "name": "",
          "type": "address"
        }
      ],
      "name": "balanceOf",
      "outputs": [
        {
          "name": "",
          "type": "uint256"
        }
      ],
      "payable": false,
      "stateMutability": "view",
      "type": "function"
    },
    {
      "constant": true,
      "inputs": [],
      "name": "tokenPrice",
      "outputs": [
        {
          "name": "",
          "type": "uint256"
        }
      ],
      "payable": false,
      "stateMutability": "view",
      "type": "function"
    },
    {
      "constant": true,
      "inputs": [],
      "name": "symbol",
      "outputs": [
        {
          "name": "",
          "type": "string"
        }
      ],
      "payable": false,
      "stateMutability": "view",
      "type": "function"
    },
    {
      "constant": true,
      "inputs": [],
      "name": "thirdParty",
      "outputs": [
        {
          "name": "",
          "type": "string"
        }
      ],
      "payable": false,
      "stateMutability": "view",
      "type": "function"
    },
    {
      "constant": true,
      "inputs": [],
      "name": "admin",
      "outputs": [
        {
          "name": "",
          "type": "string"
        }
      ],
      "payable": false,
      "stateMutability": "view",
      "type": "function"
    },
    {
      "inputs": [
        {
          "name": "_initialSupply",
          "type": "uint256"
        }
      ],
      "payable": false,
      "stateMutability": "nonpayable",
      "type": "constructor"
    },
    {
      "anonymous": false,
      "inputs": [
        {
          "indexed": false,
          "name": "studentId",
          "type": "uint256"
        },
        {
          "indexed": false,
          "name": "name",
          "type": "string"
        }
      ],
      "name": "NewStudent",
      "type": "event"
    },
    {
      "anonymous": false,
      "inputs": [
        {
          "indexed": true,
          "name": "_from",
          "type": "address"
        },
        {
          "indexed": true,
          "name": "_to",
          "type": "address"
        },
        {
          "indexed": false,
          "name": "_value",
          "type": "uint256"
        }
      ],
      "name": "Transfer",
      "type": "event"
    },
    {
      "constant": false,
      "inputs": [
        {
          "name": "_name",
          "type": "string"
        }
      ],
      "name": "createStudent",
      "outputs": [],
      "payable": false,
      "stateMutability": "nonpayable",
      "type": "function"
    },
    {
      "constant": false,
      "inputs": [
        {
          "name": "_studentId",
          "type": "uint256"
        }
      ],
      "name": "levelUpBlockChainProgress",
      "outputs": [
        {
          "name": "",
          "type": "bool"
        }
      ],
      "payable": true,
      "stateMutability": "payable",
      "type": "function"
    },
    {
      "constant": false,
      "inputs": [
        {
          "name": "_studentId",
          "type": "uint256"
        },
        {
          "name": "_BlockChainProgress",
          "type": "uint32"
        }
      ],
      "name": "checkProgress",
      "outputs": [
        {
          "name": "",
          "type": "bool"
        }
      ],
      "payable": false,
      "stateMutability": "nonpayable",
      "type": "function"
    },
    {
      "constant": false,
      "inputs": [
        {
          "name": "_studentId",
          "type": "uint256"
        }
      ],
      "name": "levelUpEthereumProgress",
      "outputs": [],
      "payable": true,
      "stateMutability": "payable",
      "type": "function"
    },
    {
      "constant": false,
      "inputs": [
        {
          "name": "_studentId",
          "type": "uint256"
        }
      ],
      "name": "levelUpBitcoinProgress",
      "outputs": [],
      "payable": true,
      "stateMutability": "payable",
      "type": "function"
    },
    {
      "constant": false,
      "inputs": [
        {
          "name": "x",
          "type": "string"
        },
        {
          "name": "_studentId",
          "type": "uint256"
        }
      ],
      "name": "set",
      "outputs": [],
      "payable": false,
      "stateMutability": "nonpayable",
      "type": "function"
    },
    {
      "constant": true,
      "inputs": [
        {
          "name": "_studentId",
          "type": "uint256"
        }
      ],
      "name": "get",
      "outputs": [
        {
          "name": "",
          "type": "string"
        }
      ],
      "payable": false,
      "stateMutability": "view",
      "type": "function"
    },
    {
      "constant": false,
      "inputs": [
        {
          "name": "_to",
          "type": "address"
        },
        {
          "name": "_value",
          "type": "uint256"
        }
      ],
      "name": "transfer",
      "outputs": [
        {
          "name": "success",
          "type": "bool"
        }
      ],
      "payable": false,
      "stateMutability": "nonpayable",
      "type": "function"
    }
  ],
  "bytecode": "0x60806040526040805190810160405280600b81526020017f486170707920546f6b656e000000000000000000000000000000000000000000815250600390805190602001906200005192919062000176565b506040805190810160405280600581526020017f4861707079000000000000000000000000000000000000000000000000000000815250600490805190602001906200009f92919062000176565b506040805190810160405280601081526020017f486170707920546f6b656e2076312e300000000000000000000000000000000081525060059080519060200190620000ed92919062000176565b5060646009553480156200010057600080fd5b5060405160208062001b658339810180604052810190808051906020019092919050505080600a60003373ffffffffffffffffffffffffffffffffffffffff1673ffffffffffffffffffffffffffffffffffffffff16815260200190815260200160002081905550806008819055505062000225565b828054600181600116156101000203166002900490600052602060002090601f016020900481019282601f10620001b957805160ff1916838001178555620001ea565b82800160010185558215620001ea579182015b82811115620001e9578251825591602001919060010190620001cc565b5b509050620001f99190620001fd565b5090565b6200022291905b808211156200021e57600081600090555060010162000204565b5090565b90565b61193080620002356000396000f3006080604052600436106100fc576000357c0100000000000000000000000000000000000000000000000000000000900463ffffffff16806306ead22e1461010157806306fdde031461025f57806318160ddd146102ef5780631847c2ca1461031a57806337a018221461038757806346cbbd59146103a75780635a3b7e42146103c757806370a08231146104575780637af6c5ea146104ae5780637ff9b59614610503578063860104eb1461052e5780638a42ebe9146105665780639507d39a146105d957806395d89b411461067f578063a9059cbb1461070f578063e02ea48414610774578063f80bc66414610804578063f851a4401461086d575b600080fd5b34801561010d57600080fd5b5061012c600480360381019080803590602001909291905050506108fd565b60405180806020018763ffffffff1663ffffffff1681526020018663ffffffff1663ffffffff1681526020018563ffffffff1663ffffffff1681526020018463ffffffff1663ffffffff16815260200180602001838103835289818151815260200191508051906020019080838360005b838110156101b857808201518184015260208101905061019d565b50505050905090810190601f1680156101e55780820380516001836020036101000a031916815260200191505b50838103825284818151815260200191508051906020019080838360005b8381101561021e578082015181840152602081019050610203565b50505050905090810190601f16801561024b5780820380516001836020036101000a031916815260200191505b509850505050505050505060405180910390f35b34801561026b57600080fd5b50610274610ab8565b6040518080602001828103825283818151815260200191508051906020019080838360005b838110156102b4578082015181840152602081019050610299565b50505050905090810190601f1680156102e15780820380516001836020036101000a031916815260200191505b509250505060405180910390f35b3480156102fb57600080fd5b50610304610b56565b6040518082815260200191505060405180910390f35b34801561032657600080fd5b5061034560048036038101908080359060200190929190505050610b5c565b604051808273ffffffffffffffffffffffffffffffffffffffff1673ffffffffffffffffffffffffffffffffffffffff16815260200191505060405180910390f35b6103a560048036038101908080359060200190929190505050610b8f565b005b6103c560048036038101908080359060200190929190505050610cde565b005b3480156103d357600080fd5b506103dc610e2d565b6040518080602001828103825283818151815260200191508051906020019080838360005b8381101561041c578082015181840152602081019050610401565b50505050905090810190601f1680156104495780820380516001836020036101000a031916815260200191505b509250505060405180910390f35b34801561046357600080fd5b50610498600480360381019080803573ffffffffffffffffffffffffffffffffffffffff169060200190929190505050610ecb565b6040518082815260200191505060405180910390f35b3480156104ba57600080fd5b506104e960048036038101908080359060200190929190803563ffffffff169060200190929190505050610ee3565b604051808215151515815260200191505060405180910390f35b34801561050f57600080fd5b50610518610f73565b6040518082815260200191505060405180910390f35b61054c60048036038101908080359060200190929190505050610f79565b604051808215151515815260200191505060405180910390f35b34801561057257600080fd5b506105d7600480360381019080803590602001908201803590602001908080601f0160208091040260200160405190810160405280939291908181526020018383808284378201915050505050509192919290803590602001909291905050506110dd565b005b3480156105e557600080fd5b5061060460048036038101908080359060200190929190505050611116565b6040518080602001828103825283818151815260200191508051906020019080838360005b83811015610644578082015181840152602081019050610629565b50505050905090810190601f1680156106715780820380516001836020036101000a031916815260200191505b509250505060405180910390f35b34801561068b57600080fd5b506106946111d8565b6040518080602001828103825283818151815260200191508051906020019080838360005b838110156106d45780820151818401526020810190506106b9565b50505050905090810190601f1680156107015780820380516001836020036101000a031916815260200191505b509250505060405180910390f35b34801561071b57600080fd5b5061075a600480360381019080803573ffffffffffffffffffffffffffffffffffffffff16906020019092919080359060200190929190505050611276565b604051808215151515815260200191505060405180910390f35b34801561078057600080fd5b506107896113cf565b6040518080602001828103825283818151815260200191508051906020019080838360005b838110156107c95780820151818401526020810190506107ae565b50505050905090810190601f1680156107f65780820380516001836020036101000a031916815260200191505b509250505060405180910390f35b34801561081057600080fd5b5061086b600480360381019080803590602001908201803590602001908080601f016020809104026020016040519081016040528093929190818152602001838380828437820191505050505050919291929050505061146d565b005b34801561087957600080fd5b50610882611741565b6040518080602001828103825283818151815260200191508051906020019080838360005b838110156108c25780820151818401526020810190506108a7565b50505050905090810190601f1680156108ef5780820380516001836020036101000a031916815260200191505b509250505060405180910390f35b60008181548110151561090c57fe5b9060005260206000209060030201600091509050806000018054600181600116156101000203166002900480601f0160208091040260200160405190810160405280929190818152602001828054600181600116156101000203166002900480156109b85780601f1061098d576101008083540402835291602001916109b8565b820191906000526020600020905b81548152906001019060200180831161099b57829003601f168201915b5050505050908060010160009054906101000a900463ffffffff16908060010160049054906101000a900463ffffffff16908060010160089054906101000a900463ffffffff169080600101600c9054906101000a900463ffffffff1690806002018054600181600116156101000203166002900480601f016020809104026020016040519081016040528092919081815260200182805460018160011615610100020316600290048015610aae5780601f10610a8357610100808354040283529160200191610aae565b820191906000526020600020905b815481529060010190602001808311610a9157829003601f168201915b5050505050905086565b60038054600181600116156101000203166002900480601f016020809104026020016040519081016040528092919081815260200182805460018160011615610100020316600290048015610b4e5780601f10610b2357610100808354040283529160200191610b4e565b820191906000526020600020905b815481529060010190602001808311610b3157829003601f168201915b505050505081565b60085481565b60016020528060005260406000206000915054906101000a900473ffffffffffffffffffffffffffffffffffffffff1681565b6064600082815481101515610ba057fe5b906000526020600020906003020160010160089054906101000a900463ffffffff1663ffffffff16141515610cdb576019600082815481101515610be057fe5b906000526020600020906003020160010160089054906101000a900463ffffffff1601600082815481101515610c1257fe5b906000526020600020906003020160010160086101000a81548163ffffffff021916908363ffffffff1602179055506064600082815481101515610c5257fe5b906000526020600020906003020160010160089054906101000a900463ffffffff1663ffffffff161415610cda57600081815481101515610c8f57fe5b9060005260206000209060030201600101600c81819054906101000a900463ffffffff168092919060010191906101000a81548163ffffffff021916908363ffffffff160217905550505b5b50565b6064600082815481101515610cef57fe5b906000526020600020906003020160010160049054906101000a900463ffffffff1663ffffffff16141515610e2a576019600082815481101515610d2f57fe5b906000526020600020906003020160010160049054906101000a900463ffffffff1601600082815481101515610d6157fe5b906000526020600020906003020160010160046101000a81548163ffffffff021916908363ffffffff1602179055506064600082815481101515610da157fe5b906000526020600020906003020160010160049054906101000a900463ffffffff1663ffffffff161415610e2957600081815481101515610dde57fe5b9060005260206000209060030201600101600c81819054906101000a900463ffffffff168092919060010191906101000a81548163ffffffff021916908363ffffffff160217905550505b5b50565b60058054600181600116156101000203166002900480601f016020809104026020016040519081016040528092919081815260200182805460018160011615610100020316600290048015610ec35780601f10610e9857610100808354040283529160200191610ec3565b820191906000526020600020905b815481529060010190602001808311610ea657829003601f168201915b505050505081565b600a6020528060005260406000206000915090505481565b600081600084815481101515610ef557fe5b906000526020600020906003020160010160006101000a81548163ffffffff021916908363ffffffff1602179055506064600084815481101515610f3557fe5b906000526020600020906003020160010160009054906101000a900463ffffffff1663ffffffff161415610f6c5760019050610f6d565b5b92915050565b60095481565b60006064600083815481101515610f8c57fe5b906000526020600020906003020160010160009054906101000a900463ffffffff1663ffffffff161415156110d7576019600083815481101515610fcc57fe5b906000526020600020906003020160010160009054906101000a900463ffffffff1601600083815481101515610ffe57fe5b906000526020600020906003020160010160006101000a81548163ffffffff021916908363ffffffff160217905550606460008381548110151561103e57fe5b906000526020600020906003020160010160009054906101000a900463ffffffff1663ffffffff1614156110ce5760008281548110151561107b57fe5b9060005260206000209060030201600101600c81819054906101000a900463ffffffff168092919060010191906101000a81548163ffffffff021916908363ffffffff16021790555050600190506110d8565b600090506110d8565b5b919050565b816000828154811015156110ed57fe5b906000526020600020906003020160020190805190602001906111119291906117df565b505050565b606060008281548110151561112757fe5b90600052602060002090600302016002018054600181600116156101000203166002900480601f0160208091040260200160405190810160405280929190818152602001828054600181600116156101000203166002900480156111cc5780601f106111a1576101008083540402835291602001916111cc565b820191906000526020600020905b8154815290600101906020018083116111af57829003601f168201915b50505050509050919050565b60048054600181600116156101000203166002900480601f01602080910402602001604051908101604052809291908181526020018280546001816001161561010002031660029004801561126e5780601f106112435761010080835404028352916020019161126e565b820191906000526020600020905b81548152906001019060200180831161125157829003601f168201915b505050505081565b600081600a60003373ffffffffffffffffffffffffffffffffffffffff1673ffffffffffffffffffffffffffffffffffffffff16815260200190815260200160002054101515156112c657600080fd5b81600a60003373ffffffffffffffffffffffffffffffffffffffff1673ffffffffffffffffffffffffffffffffffffffff1681526020019081526020016000206000828254039250508190555081600a60008573ffffffffffffffffffffffffffffffffffffffff1673ffffffffffffffffffffffffffffffffffffffff168152602001908152602001600020600082825401925050819055508273ffffffffffffffffffffffffffffffffffffffff163373ffffffffffffffffffffffffffffffffffffffff167fddf252ad1be2c89b69c2b068fc378daa952ba7f163c4a11628f55a4df523b3ef846040518082815260200191505060405180910390a36001905092915050565b60078054600181600116156101000203166002900480601f0160208091040260200160405190810160405280929190818152602001828054600181600116156101000203166002900480156114655780601f1061143a57610100808354040283529160200191611465565b820191906000526020600020905b81548152906001019060200180831161144857829003601f168201915b505050505081565b60006001600060c060405190810160405280858152602001600063ffffffff168152602001600063ffffffff168152602001600063ffffffff168152602001600063ffffffff1681526020016040805190810160405280600181526020017f200000000000000000000000000000000000000000000000000000000000000081525081525090806001815401808255809150509060018203906000526020600020906003020160009091929091909150600082015181600001908051906020019061153992919061185f565b5060208201518160010160006101000a81548163ffffffff021916908363ffffffff16021790555060408201518160010160046101000a81548163ffffffff021916908363ffffffff16021790555060608201518160010160086101000a81548163ffffffff021916908363ffffffff160217905550608082015181600101600c6101000a81548163ffffffff021916908363ffffffff16021790555060a08201518160020190805190602001906115f292919061185f565b505050039050336001600083815260200190815260200160002060006101000a81548173ffffffffffffffffffffffffffffffffffffffff021916908373ffffffffffffffffffffffffffffffffffffffff160217905550600260003373ffffffffffffffffffffffffffffffffffffffff1673ffffffffffffffffffffffffffffffffffffffff168152602001908152602001600020600081548092919060010191905055507f0bc2eb751cecb48963ea92912ee771fa6bcd434b32be4f7fc484df4dcbec699b81836040518083815260200180602001828103825283818151815260200191508051906020019080838360005b838110156117025780820151818401526020810190506116e7565b50505050905090810190601f16801561172f5780820380516001836020036101000a031916815260200191505b50935050505060405180910390a15050565b60068054600181600116156101000203166002900480601f0160208091040260200160405190810160405280929190818152602001828054600181600116156101000203166002900480156117d75780601f106117ac576101008083540402835291602001916117d7565b820191906000526020600020905b8154815290600101906020018083116117ba57829003601f168201915b505050505081565b828054600181600116156101000203166002900490600052602060002090601f016020900481019282601f1061182057805160ff191683800117855561184e565b8280016001018555821561184e579182015b8281111561184d578251825591602001919060010190611832565b5b50905061185b91906118df565b5090565b828054600181600116156101000203166002900490600052602060002090601f016020900481019282601f106118a057805160ff19168380011785556118ce565b828001600101855582156118ce579182015b828111156118cd5782518255916020019190600101906118b2565b5b5090506118db91906118df565b5090565b61190191905b808211156118fd5760008160009055506001016118e5565b5090565b905600a165627a7a7230582061c5265d6dc370473cc973742e60e1588eb1eefd8f6539ee86e65ccf14fe1bce0029",
  "source": "pragma solidity 0.4.24;\n\n//import \"zeppelin-solidity/contracts/ownership/Ownable.sol\";\n//import \"zeppelin-solidity/contracts/math/SafeMath.sol\";\n\n\ncontract SimpleStorage  {\n\n  // using SafeMath for uint;\n\n   event NewStudent(uint studentId, string name);\n\n // string ipfsHash;\n struct Student {\n    string  name;\n    uint32 BlockChainProgress;\n    uint32 EthereumProgress;\n    uint32 BitcoinProgress;\n    uint32 studentTokens;\n    string certificateHash;\n  }\n\nStudent[] public students;\n\nmapping (uint => address) public studentAddress;\nmapping (address => uint) studentCount;\n\n  string  public name = \"Happy Token\";\n  string  public symbol = \"Happy\";\n  string  public standard = \"Happy Token v1.0\";\n  string  public admin;\n  string  public thirdParty;\n  uint256 public totalSupply;\n  uint256 public tokenPrice = 100;\n  \n\n  function SimpleStorage (uint256 _initialSupply) public {\n        balanceOf[msg.sender] = _initialSupply;\n        totalSupply = _initialSupply;\n    }\n\n\nfunction createStudent(string _name)  {\n    uint id = students.push(Student(_name, 0,0, 0,0,' ')) - 1;\n    studentAddress[id] = msg.sender;\n    studentCount[msg.sender]++;\n    NewStudent(id, _name);\n\n  }\n\n\n function levelUpBlockChainProgress(uint _studentId) external payable returns (bool) {\n\n  \n    if(students[_studentId].BlockChainProgress!=100){\n    students[_studentId].BlockChainProgress=students[_studentId].BlockChainProgress+25;\n    if(students[_studentId].BlockChainProgress==100){\n      students[_studentId].studentTokens++;\n      return true;\n    }\n    else\n    {\n   return false;\n      \n    }\n  }\n  \n  }\n\n  function checkProgress(uint _studentId,uint32 _BlockChainProgress) returns (bool)\n  {\n      students[_studentId].BlockChainProgress=_BlockChainProgress;\n\n     if(students[_studentId].BlockChainProgress==100){\n      \n      return true;\n\n  }\n}\n\n   function levelUpEthereumProgress(uint _studentId) external payable {\n     if(students[_studentId].EthereumProgress!=100){\n    students[_studentId].EthereumProgress=students[_studentId].EthereumProgress+25;\n    if(students[_studentId].EthereumProgress==100){\n      students[_studentId].studentTokens++;\n\n    }\n  }\n }\n\n   function levelUpBitcoinProgress(uint _studentId) external payable {\n    if(students[_studentId].BitcoinProgress!=100){\n    students[_studentId].BitcoinProgress=students[_studentId].BitcoinProgress+25;\n    if(students[_studentId].BitcoinProgress==100){\n      students[_studentId].studentTokens++;\n    }\n  }\n}\n\n  function set(string x,uint _studentId) public {\n    students[_studentId].certificateHash = x;\n  }\n\n  function get(uint _studentId) public view returns (string) {\n    return students[_studentId].certificateHash;\n  }\n\n    event Transfer(\n        address indexed _from,\n        address indexed _to,\n        uint256 _value\n    );\n\n    /*event Approval(\n        address indexed _owner,\n        address indexed _spender,\n        uint256 _value\n    );*/\n\n    mapping(address => uint256) public balanceOf;\n    //mapping(address => mapping(address => uint256)) public allowance;\n\n    \n\n    function transfer(address _to, uint256 _value) public returns (bool success) {\n         \n          require(balanceOf[msg.sender] >= _value);\n\n          balanceOf[msg.sender] -= _value;\n          balanceOf[_to] += _value;\n\n          Transfer(msg.sender, _to, _value);\n          \n       return true;\n\n\n\n    }\n\n   \n\n \n\n\n}\n",
  "sourcePath": "/home/panther/task/contracts/SimpleStorage.sol",
  "compiler": {
    "name": "solc",
    "version": "0.4.24+commit.e67f0147.Emscripten.clang"
  },
  "schemaVersion": "2.0.1",
  "updatedAt": "2018-09-21T07:27:08.133Z"
}